:100000000C942A000C9434000C9434000C943400AA
:100010000C9434000C9434000C9434000C94340090
:100020000C9434000C9434000C9434000C94340080
:100030000C9434000C9434000C9434000C94340070
:100040000C9434000C9434000C9434000C94340060
:100050000C94340011241FBECFE5D8E0DEBFCDBF25
:100060000E9439000C9474000C9400008FEF81BB47
:1000700008950E94360020E030E016C042B381E0CF
:1000800090E0022E02C0880F991F0A94E2F7842B99
:1000900082BB4FE38DE093E0415080409040E1F718
:1000A00000C000002F5F3F4F283031053CF327E0B0
:1000B00030E017C042B381E090E0022E02C0880F0A
:1000C000991F0A94E2F78095842382BB4FE38DE069
:1000D00093E0415080409040E1F700C00000215083
:0C00E000310933233CF7C7CFF894FFCF61
:00000001FF
