S01300004156525F616D69745F54332E7372656338
S11300000C942A000C9434000C9434000C943400A6
S11300100C9434000C9434000C9434000C9434008C
S11300200C9434000C9434000C9434000C9434007C
S11300300C9434000C9434000C9434000C9434006C
S11300400C9434000C9434000C9434000C9434005C
S11300500C94340011241FBECFE5D8E0DEBFCDBF21
S11300600E946B000C947C000C94000081B38E7F82
S113007081BB81B3806181BB0895CF93DF9300D0AE
S113008000D000D0CDB7DEB79E838D831A8219824B
S113009012C01C821B8205C08B819C8101969C83AB
S11300A08B838B819C818F3F9105B0F389819A81E9
S11300B001969A83898329813A818D819E812817AB
S11300C0390738F326960FB6F894DEBF0FBECDBFBE
S11300D0DF91CF9108950E943600809BFECF82B3BA
S11300E0806182BB84EF91E00E943D0082B38F7EE9
S10F00F082BB8099FECFF1CFF894FFCFC3
S9030000FC
