:020000040800F2
:1000000000280020F1020008410300084103000815
:1000100041030008410300084103000800000000FC
:100020000000000000000000000000004103000884
:1000300041030008000000004103000841030008DC
:100040004103000841030008410300084103000880
:1000500041030008410300087101000895010008F0
:10006000B9010008DD010008010200084103000891
:100070004103000841030008410300084103000850
:100080004103000841030008410300084103000840
:10009000410300084103000841030008250200084D
:1000A0004103000841030008410300084103000820
:1000B0004103000841030008410300084103000810
:1000C0004103000841030008410300084103000800
:1000D00041030008410300084103000841030008F0
:1000E000CD020008410300080000000041030008A1
:1000F00041030008410300084103000841030008D0
:1001000041030008410300084103000841030008BF
:1001100041030008410300084103000841030008AF
:10012000410300084103000841030008410300089F
:1001300010B5054C237833B9044B13B10448AFF321
:1001400000800123237010BD00000020000000008B
:100150008C03000808B5034B1BB103490348AFF3F8
:10016000008008BD00000000040000208C0300088F
:1001700080B500AF054B5B69044A43F0010353614E
:10018000034B1B68984700BF80BD00BF00040140BF
:100190001C00002080B500AF054B5B69044A43F0AA
:1001A00002035361034B5B68984700BF80BD00BFEB
:1001B000000401401C00002080B500AF054B5B69C6
:1001C000044A43F004035361034B9B68984700BF04
:1001D00080BD00BF000401401C00002080B500AFBE
:1001E000054B5B69044A43F008035361034BDB682A
:1001F000984700BF80BD00BF000401401C000020E4
:1002000080B500AF054B5B69044A43F010035361AE
:10021000034B1B69984700BF80BD00BF000401402D
:100220001C00002080B500AF264B5B6903F0200363
:10023000002B08D0234B5B69224A43F02003536113
:10024000214B5B6998471F4B5B6903F04003002B10
:1002500008D01C4B5B691B4A43F0400353611A4BA7
:100260009B699847174B5B6903F08003002B08D00C
:10027000144B5B69134A43F080035361124BDB69F3
:100280009847104B5B6903F48073002B08D00D4B2B
:100290005B690C4A43F4807353610B4B1B6A9847AC
:1002A000084B5B6903F40073002B08D0054B5B69B6
:1002B000044A43F400735361034B5B6A984700BFE1
:1002C00080BD00BF000401401C00002080B400AFCE
:1002D000044B5B69034A43F00103536100BFBD4611
:1002E00080BC70470004014080B400AFFEE700000E
:1002F0000D488546AFF300800C480D490D4A002398
:1003000002E0D458C4500433C4188C42F9D30A4ACA
:100310000A4C002301E013600432A242FBD300F038
:1003200011F8FFF7E1FFFEE70028002000000020A1
:1003300000000020AC03000800000020580000204E
:10034000FEE7000070B500260C4D0D4C641BA41098
:10035000A64209D100F01AF800260A4D0A4C641B87
:10036000A410A64205D170BD55F8043B984701364C
:10037000EEE755F8043B98470136F2E7A40300087E
:10038000A4030008A4030008A8030008F8B500BFF0
:10039000F8BC08BC9E467047F8B500BFF8BC08BC66
:0403A0009E467047BE
:0403A40055010008F7
:0403A8003101000817
:04000005080002F1FC
:00000001FF
