:020000040800F2
:1000000000280020A50E0008F50E0008F50E0008D7
:10001000F50E0008F50E0008F50E000800000000BF
:10002000000000000000000000000000F50E0008C5
:10003000F50E000800000000F50E0008F50E00089F
:10004000F50E0008F50E0008F50E0008F50E000884
:10005000F50E0008F50E0008710100089501000872
:10006000B9010008DD01000801020008F50E0008D2
:10007000F50E0008F50E0008F50E0008F50E000854
:10008000F50E0008F50E0008F50E0008F50E000844
:10009000F50E0008F50E0008F50E00082502000810
:1000A000F50E0008F50E0008F50E0008F50E000824
:1000B000F50E0008F50E0008F50E0008F50E000814
:1000C000F50E0008F50E0008F50E00082D0A0008D0
:1000D000850A0008610D0008750D0008890D0008EB
:1000E000CD020008F50E000800000000F50E000823
:1000F000F50E0008F50E0008F50E0008F50E0008D4
:10010000F50E0008F50E0008F50E0008F50E0008C3
:10011000F50E0008F50E0008F50E0008F50E0008B3
:10012000F50E0008F50E0008F50E0008F50E0008A3
:1001300010B5054C237833B9044B13B10448AFF321
:1001400000800123237010BD00000020000000008B
:10015000400F000808B5034B1BB103490348AFF338
:10016000008008BD0000000004000020400F0008CF
:1001700080B500AF054B5B69044A43F0010353614E
:10018000034B1B68984700BF80BD00BF00040140BF
:100190001C00002080B500AF054B5B69044A43F0AA
:1001A00002035361034B5B68984700BF80BD00BFEB
:1001B000000401401C00002080B500AF054B5B69C6
:1001C000044A43F004035361034B9B68984700BF04
:1001D00080BD00BF000401401C00002080B500AFBE
:1001E000054B5B69044A43F008035361034BDB682A
:1001F000984700BF80BD00BF000401401C000020E4
:1002000080B500AF054B5B69044A43F010035361AE
:10021000034B1B69984700BF80BD00BF000401402D
:100220001C00002080B500AF264B5B6903F0200363
:10023000002B08D0234B5B69224A43F02003536113
:10024000214B5B6998471F4B5B6903F04003002B10
:1002500008D01C4B5B691B4A43F0400353611A4BA7
:100260009B699847174B5B6903F08003002B08D00C
:10027000144B5B69134A43F080035361124BDB69F3
:100280009847104B5B6903F48073002B08D00D4B2B
:100290005B690C4A43F4807353610B4B1B6A9847AC
:1002A000084B5B6903F40073002B08D0054B5B69B6
:1002B000044A43F400735361034B5B6A984700BFE1
:1002C00080BD00BF000401401C00002080B400AFCE
:1002D000044B5B69034A43F00103536100BFBD4611
:1002E00080BC70470004014080B483B000AF034677
:1002F000FB80FB88B3F5004F00F0A580B3F5004FFD
:1003000000F3A380B3F5804F00F09B80B3F5804FDE
:1003100000F39B80B3F5005F00F09180B3F5005FC0
:1003200000F39380B3F5805F00F08780B3F5805FC2
:1003300000F38B80B3F5006F7DD0B3F5006F00F351
:100340008480B3F5806F74D0B3F5806F7DDCB3F536
:10035000007F6CD0B3F5007F77DCB3F5807F64D08D
:10036000B3F5807F71DC802B5DD0802B6DDC202B82
:1003700048DC002B69DD013B1F2B66D801A252F837
:1003800023F000BF0B0400080F0400084B04000812
:10039000130400084B0400084B0400084B04000839
:1003A000170400084B0400084B0400084B04000825
:1003B0004B0400084B0400084B0400084B040008E1
:1003C0001B0400084B0400084B0400084B04000801
:1003D0004B0400084B0400084B0400084B040008C1
:1003E0004B0400084B0400084B0400084B040008B1
:1003F0004B0400084B0400084B0400084B040008A1
:100400001F040008402B0CD01FE000231EE0042333
:100410001CE008231AE00C2318E0102316E0142334
:1004200014E0182312E01C2310E000230EE0042344
:100430000CE008230AE00C2308E0102306E0142354
:1004400004E0182302E01C2300E0002318460C37C8
:10045000BD4680BC704700BF90B585B000AF7860E6
:1004600039600023FB730023BB603B681B889BB291
:10047000FF2B01D87B6801E07B680433BB603B68DD
:100480001B889BB21846FFF72FFF03461A460F231F
:100490009340DA43BB681B681A40BB681A603B682C
:1004A0009B78DBB2042B0ED03B689B78DBB2052B2C
:1004B00009D03B689B78DBB2062B04D03B689B7865
:1004C000DBB2072B10D13B689B78DBB2043B9B006F
:1004D0005AB23B68DB78DBB25BB203F00F035BB26E
:1004E00013435BB2FB7330E03B689B78DBB2002BBD
:1004F00004D03B689B78DBB2012B05D13B689B782D
:10050000DBB29B00FB7320E03B689B78DBB2082BDF
:1005100002D10423FB7318E00823FB733B689B782C
:10052000DBB2022B08D13B681B889AB27B68DB6880
:100530001A437B68DA6008E03B681B889BB2DA43A9
:100540007B68DB681A407B68DA60FC7B3B681B8851
:100550009BB21846FFF7C8FE034604FA03F2BB68D5
:100560001B681A43BB681A6000BF1437BD4690BDB4
:1005700080B400AF0B4B5B689B0803F00303022BB6
:100580000AD0022B0AD8002B02D0012B02D005E0A2
:10059000054B03E0054B01E0044BFFE71846BD4661
:1005A00080BC70470010024000127A000024F40062
:1005B00080B500AFFFF7DCFF0246054B5B681B0A06
:1005C00003F007030349CB5C22FA03F3184680BD0E
:1005D00000100240600F000880B500AFFFF7E8FF91
:1005E0000246054B5B681B0A03F007030349CB5C1B
:1005F00022FA03F3184680BD00100240580F00088D
:1006000080B500AFFFF7D4FF0246054B5B68DB0AFD
:1006100003F007030349CB5C22FA03F3184680BDBD
:1006200000100240580F0008B0B485B000AF7860E9
:1006300039600023FB810023BB817B68484A9342D9
:1006400010D1484A3B6814461D460FCD0FC495E8AB
:10065000030084E80300444B9B69434A43F48053FE
:10066000936114E07B68414A934210D13D4B3A6854
:1006700003F1180415460FCD0FC495E8030084E874
:100680000300394BDB69384A43F48043D36140238C
:10069000FB813B681A88FB891343FB813B685A88BE
:1006A000FB891343FB813B689A88FB891343FB81D9
:1006B0003B68DA88FB891343FB813B681A89FB8915
:1006C0001343FB813B685A89FB891343FB813B68D9
:1006D0009B89042B05D13B689A89BB891343BB8155
:1006E00010E03B689B894FF6FB72934205D13B6853
:1006F0009A89BB891340BB8104E03B689A89FB89D6
:100700001343FB813B68DA89FB891343FB813B6818
:100710001B8A002B19D03B681A8ABB891343BB8103
:100720007B680F4A934206D1114B1B68104A43F075
:100730000803136009E07B680C4A934205D10C4B17
:100740001B680B4A43F010031360FA897B681A6038
:10075000BA897B685A6000BF1437BD46B0BC704789
:1007600000300140580000200010024000380040D6
:1007700004E100E080B584B000AF78607B687F4A18
:10078000934275D17E4B1B88042B42D17C4B9B89B5
:10079000042B0ED04FF6FB72934217D10123BB738B
:1007A0001023BB8107F10C0319467648FFF754FE6E
:1007B0000CE00623BB731023BB810123FB7307F1FD
:1007C0000C0319466F48FFF747FE00BF0623BB73B3
:1007D0002023BB810123FB7307F10C0319466948F1
:1007E000FFF73AFE0123BB734023BB8107F10C03E3
:1007F00019466448FFF730FE0623BB738023BB8194
:100800000123FB7307F10C0319465E48FFF724FE32
:10081000B0E05B4B1B88002B09D10123BB73102375
:10082000BB8107F10C0319465648FFF715FE01235B
:10083000BB732023BB8107F10C0319465148FFF716
:100840000BFE0623BB734023BB810123FB7307F11F
:100850000C0319464B48FFF7FFFD0123BB738023B0
:10086000BB8107F10C0319464648FFF7F5FD81E00F
:100870007B68454A93427DD1414B1B8B042B47D16A
:100880003F4B9B89042B0FD04FF6FB72934219D13B
:100890000123BB734FF48053BB8107F10C0319464E
:1008A0003A48FFF7D9FD0DE00623BB734FF48053A0
:1008B000BB810123FB7307F10C0319463348FFF793
:1008C000CBFD00BF0623BB734FF40053BB81012354
:1008D000FB7307F10C0319462C48FFF7BDFD0123FC
:1008E000BB734FF48043BB8107F10C0319462748C3
:1008F000FFF7B2FD0623BB734FF40043BB81012316
:10090000FB7307F10C0319462048FFF7A5FD31E002
:100910001B4B1B8B002B0AD10123BB734FF480535D
:10092000BB8107F10C0319461848FFF795FD012319
:10093000BB734FF40053BB8107F10C0319461348F6
:10094000FFF78AFD0623BB734FF48043BB8101236D
:10095000FB7307F10C0319460C48FFF77DFD0123DB
:10096000BB734FF40043BB8107F10C0319460748E2
:10097000FFF772FD00BF1037BD4680BD003001405B
:10098000580000200008014000380040000C0140E1
:1009900080B485B000AFF860B9601346FB71FB7995
:1009A000002B06D100BFFB689B6803F00203002BFD
:1009B000F9D0BB681B881A46FB68DA6000BF1437A1
:1009C000BD4680BC704780B485B000AFF860B960A8
:1009D0001346FB71FB79002B06D100BFFB689B68B7
:1009E00003F00103002BF9D0FB68DB689AB2BB6807
:1009F0001A8000BF1437BD4680BC704780B584B0F4
:100A000000AFF860B9601346FB71FB791A46B9680C
:100A1000F868FFF7BDFFFB791A46B968F868FFF779
:100A2000D2FF00BF1037BD4680BD000080B582B048
:100A300000AF124B9B685B0803F00103DAB23B790D
:100A400062F300033B710D4B9B6803F00103DAB2C4
:100A50003B7962F341033B71084B9B681B0903F030
:100A60000103DAB23B7962F382033B71044B5B69A9
:100A70003879984700BF0837BD4680BD0030014037
:100A80005800002080B582B000AF124B9B685B0815
:100A900003F00103DAB23B7962F300033B710D4BC3
:100AA0009B6803F00103DAB23B7962F341033B71C7
:100AB000084B9B681B0903F00103DAB23B7962F330
:100AC00082033B71044BDB6A3879984700BF0837D3
:100AD000BD4680BD003800405800002080B584B07D
:100AE00000AF78603960564A3B6813607B68554AAE
:100AF000934206D1544B9B69534A43F4804393611C
:100B000014E07B68514A934206D14F4BDB694E4A51
:100B100043F40033D36109E07B684D4A934205D129
:100B2000494BDB69484A43F48023D3617B68DB6827
:100B300043F400527B68DA607B68DB683A681278BD
:100B40001A437B68DA607B68DB683A68127A1A437A
:100B50007B68DA607B68DB683A68527A1A437B68A4
:100B6000DA607B681B693A68927A1A437B681A617B
:100B70007B685B693A68D27A1A437B685A617B6802
:100B8000304A934203D1FFF73BFDF86002E0FFF7E4
:100B900023FDF8603B685B681B01FA68B2FBF3F366
:100BA0001901FA6813469B0013449A001A443B68E3
:100BB0005B689B00B2FBF3F23B685B681B01F86863
:100BC000B0FBF3F3642000FB03F3D31A1B01214AAB
:100BD000A2FB03235B0903F00F0341EA03027B68D6
:100BE0009A603B681B7B002B26D07B68DB683A68E9
:100BF000127B1A437B68DA607B68124A934206D103
:100C0000154B1B68144A43F02003136014E07B6803
:100C10000E4A934206D1104B1B680F4A43F0400323
:100C2000136009E07B680A4A934205D10A4B1B68AE
:100C3000094A43F08003136000BF1037BD4680BDF2
:100C400088000020003801400010024000440040AD
:100C5000004800401F85EB5104E100E080B584B0FE
:100C600000AF78607B682B4A934218D14FF4007331
:100C7000BB810623BB730123FB7307F10C031946E9
:100C80002548FFF7E9FB4FF48063BB810823BB7362
:100C900007F10C0319462048FFF7DEFB36E07B68BE
:100CA0001E4A934216D10423BB810623BB73012342
:100CB000FB7307F10C0319461748FFF7CDFB082318
:100CC000BB810823BB7307F10C0319461248FFF7D9
:100CD000C3FB1BE07B68124A934217D14FF4806339
:100CE000BB810623BB730123FB7307F10C03194679
:100CF0000C48FFF7B1FB4FF40063BB810823BB73C3
:100D000007F10C0319460748FFF7A6FB00BF103791
:100D1000BD4680BD0038014000080140004400404D
:100D200000480040000C014080B485B000AFF8607E
:100D3000B9601346FB71FB79002B06D100BFFB683D
:100D40001B6803F08003002BF9D0BB681B88DAB264
:100D5000FB685A6000BF1437BD4680BC7047000076
:100D600080B500AF024B1B681B69984700BF80BD70
:100D70008800002080B500AF024B1B681B699847B4
:100D800000BF80BD8800002080B500AF024B1B680B
:100D90001B69984700BF80BD8800002080B400AF69
:100DA0000A4B9B69094A43F004039361074B9B6913
:100DB000064A43F008039361044B9B69034A43F0DE
:100DC0000103936100BFBD4680BC70470010024024
:100DD00080B582B000AF38713B7903F00203DBB21B
:100DE000002B0CD0084B0F221A800122064907481D
:100DF000FFF704FE002204490548FFF795FF00BFF6
:100E00000837BD4680BD00BF8C0000200030014087
:100E10000038014080B58CB000AFFFF7BFFF4FF442
:100E2000E1333B62002387F82730002387F828301E
:100E30000023FB62002387F82530002387F8243045
:100E4000002387F826300C233B7707F11C03194653
:100E50001148FFF743FE1048FFF700FF0123FB8115
:100E60000223BB8100237B8100233B8110237B82F3
:100E70000023FB800023BB804023BB8200233B82F6
:100E8000064BBB613B1D19460548FFF7CDFB0448E7
:100E9000FFF770FCFEE700BF00380140D10D0008ED
:100EA000003001400D488546AFF300800C480D49E5
:100EB0000D4A002302E0D458C4500433C4188C42B5
:100EC000F9D30A4A0A4C002301E013600432A2421B
:100ED000FBD300F011F8FFF79DFFFEE7002800208C
:100EE0000000002000000020780F00080000002013
:100EF00090000020FEE7000070B500260C4D0D4C60
:100F0000641BA410A64209D100F01AF800260A4D6D
:100F10000A4C641BA410A64205D170BD55F8043BD1
:100F200098470136EEE755F8043B98470136F2E75B
:100F3000700F0008700F0008700F0008740F000891
:100F4000F8B500BFF8BC08BC9E467047F8B500BFB6
:080F5000F8BC08BC9E46704786
:100F5800000000000102030400000000000000007F
:080F6800010203040607080959
:040F7000550100081F
:040F7400310100083F
:0400000508000EA53C
:00000001FF
