:100000000C942A000C9434000C9434000C943400AA
:100010000C9434000C9434000C9434000C94340090
:100020000C9434000C9434000C9434000C94340080
:100030000C9434000C9434000C9434000C94340070
:100040000C9434000C9434000C9434000C94340060
:100050000C94340011241FBECFE5D8E0DEBFCDBF25
:100060000E9436000C945B000C94000084B38E7FD9
:1000700084BB85B3816085BB8FEF8ABB80E090E055
:1000800088309105ECF79899FBCF4BB321E030E035
:10009000082E02C0220F331F0A94E2F7242B2BBB39
:1000A00001962FEF34E34CE0215030404040E1F71F
:0A00B00000C00000E5CFF894FFCF78
:00000001FF
