:020000040800F2
:1000000000280020C5020008150300081503000899
:100010001503000815030008150300080000000080
:1000200000000000000000000000000015030008B0
:100030001503000800000000150300081503000860
:100040001503000815030008150300081503000830
:100050001503000815030008150300081503000820
:100060001503000815030008150300081503000810
:100070001503000815030008150300081503000800
:1000800015030008150300081503000815030008F0
:1000900015030008150300081503000815030008E0
:1000A00015030008150300081503000815030008D0
:1000B00015030008150300081503000815030008C0
:1000C00015030008150300081503000815030008B0
:1000D00015030008150300081503000815030008A0
:1000E00015030008150300080000000015030008B0
:1000F0001503000815030008150300081503000880
:10010000150300081503000815030008150300086F
:10011000150300081503000815030008150300085F
:10012000150300081503000815030008150300084F
:1001300010B5054C237833B9044B13B10448AFF321
:1001400000800123237010BD00000020000000008B
:100150006003000808B5034B1BB103490348AFF324
:10016000008008BD000000000400002060030008BB
:1001700080B400AF074B1B68064A43F004031360CA
:10018000044B1B68034A43F00803136000BFBD46DD
:1001900080BC70471810024080B400AF1E4B002294
:1001A0001A601E4B00221A601D4B00221A601A4B67
:1001B0001B68194A23F030031360174B1B68164A5B
:1001C00043F040031360154B1B68144A23F440139B
:1001D0001360124B1B68114A43F480031360114BE8
:1001E0001B68104A43F0100313600E4B1B680D4A46
:1001F00023F0C00313600C4B1B680B4A43F48013BD
:100200001360094B1B68084A23F44003136000BFC6
:10021000BD4680BC704700BF000801400408014093
:100220000C080140000C0140040C014080B485B072
:1002300000AF78600023FB600BE00023BB6002E0AE
:10024000BB680133BB60BB68FF2BF9D9FB68013386
:10025000FB60FA687B689A42EFD900BF00BF143791
:10026000BD4680BC7047000080B500AFFFF780FF3F
:10027000FFF792FF114B1B6803F00203002B0CD118
:100280000F4B1B680E4A83F00203136000BF0B4B39
:100290001B6803F00203002BF9D0084B1B685B0BB3
:1002A00003F00103012B05D1054B1B68044A83F4BD
:1002B000005313600120FFF7B9FFDBE70808014096
:1002C0000C0C01400D488546AFF300800C480D49E9
:1002D0000D4A002302E0D458C4500433C4188C42A1
:1002E000F9D30A4A0A4C002301E013600432A24207
:1002F000FBD300F011F8FFF7B7FFFEE7002800205E
:100300000000002000000020800300080000002002
:100310001C000020FEE7000070B500260C4D0D4CBF
:10032000641BA410A64209D100F01AF800260A4D59
:100330000A4C641BA410A64205D170BD55F8043BBD
:1003400098470136EEE755F8043B98470136F2E747
:100350007803000878030008780300087C0300088D
:10036000F8B500BFF8BC08BC9E467047F8B500BFA2
:08037000F8BC08BC9E46704772
:040378005501000823
:04037C003101000843
:04000005080002C528
:00000001FF
