S01800004156525F55534152545F4452495645522E737265630A
S11300000C942A000C943F000C943F000C943F0085
S11300100C943F000C943F000C943F000C943F0060
S11300200C943F000C943F000C943F000C943F0050
S11300300C943F000C943F000C943F000C943F0040
S11300400C943F000C943F000C943F000C943F0030
S11300500C943F0011241FBECFE5D8E0DEBFCDBF16
S113006010E0A0E6B0E0E2EDF2E002C005900D92EF
S1130070AE38B107D9F70E94E0000C9467010C94E4
S1130080000088B3877F88BB83ED90E30197F1F785
S113009000C0000088B3886088BB08951ABA88B38A
S11300A0846088BB88B38D7F88BB0E9441008FEF3A
S11300B08ABB88B38B7F88BB0895CF93C82F0E94D7
S11300C04E00CBBB88B38B7F88BB0E944100CF918D
S11300D0089581E00E945D00089587E893E1019707
S11300E0F1F700C000000E944E0087B38E6087BB0A
S11300F088B3817F88BB8FEF8ABB85EA9EE0019736
S1130100F1F700C000000E94690088E30E945D00CE
S113011086E00E945D0080E80E945D008FE00E94FE
S11301205D000895CF93C82F0E944E0088B382606B
S113013088BBCBBB88B3826088BB88B38B7F88BB0A
S11301400E944100CF910895811107C0603168F485
S113015080E8860F0E945D000895813031F460319B
S113016020F480EC860F0E945D0008950F931F9386
S1130170CF93DF938C01C0E0D0E019C021960F5FCC
S11301801F4F0E949200C031D10529F460E081E044
S11301900E94A4000CC0CE018097029740F40E94F4
S11301A0690060E080E00E94A400C0E0D0E0F801B3
S11301B080818111E3CFDF91CF911F910F91089539
S11301C0CF93DF93CDB7DEB7C85CD1090FB6F894EF
S11301D0DEBF0FBECDBF0E946D000E9469002FE3F9
S11301E082E49FE0215080409040E1F700C000008D
S11301F080E690E00E94B6002FE382E49FE0215065
S113020080409040E1F700C000000E9469000E9415
S1130210250187E690E00E94B6002FE382E49FE088
S1130220215080409040E1F700C000000E94690026
S11302308CE790E00E944501CE0101960E94550191
S1130240CE0101960E94B600F7CF8BB18D7F8BB99A
S113025087E689B980B5886080BD80B5826080BD3D
S113026080B5846080BD8AB18B7F8AB98AB1886089
S11302708AB98AB180618AB908955D9BFECF8CB931
S113028008955F9BFECF8CB10895CF93DF93EC016B
S113029003C00E943D01219688818111FACF8DE02F
S11302A00E943D01DF91CF910895CF93DF93EC013C
S11302B00E944101888304C021960E9441018883E1
S11302C088818D30C9F71882DF91CF910895F89411
S10502D0FFCF5A
S11302D248454C4C4F2000554152542069732069C3
S11302E26E697469616C697A65642000414C4920C5
S11102F24F53414D412041424F4F55460000AD
S9030000FC
