:100000000C942A000C9434000C9434000C943400AA
:100010000C9434000C9434000C9434000C94340090
:100020000C9434000C9434000C9434000C94340080
:100030000C9434000C9434000C9434000C94340070
:100040000C9434000C9434000C9434000C94340060
:100050000C94340011241FBECFE5D8E0DEBFCDBF25
:100060000E9436000C9450000C9400008EEF81BB6F
:1000700081B38E7F81BB82B3816082BB809BFECFC8
:1000800082B3806182BB2FE788E391E021508040FA
:100090009040E1F700C0000082B38F7E82BBEECFBC
:0400A000F894FFCF02
:00000001FF
