:020000040800F2
:1000000000280020F10B0008410C0008410C0008FA
:10001000410C0008410C0008410C000800000000E1
:10002000000000000000000000000000410C00087B
:10003000410C000800000000410C0008410C0008C1
:10004000410C0008410C0008410C0008410C00085C
:10005000410C0008410C0008410C0008410C00084C
:10006000410C0008410C0008410C0008410C00083C
:10007000410C0008410C0008410C0008410C00082C
:10008000410C0008410C0008410C0008410C00081C
:10009000410C0008410C0008410C0008410C00080C
:1000A000410C0008410C0008410C0008410C0008FC
:1000B000410C0008410C0008410C0008410C0008EC
:1000C000410C0008410C0008410C0008410C0008DC
:1000D000410C0008410C0008410C0008410C0008CC
:1000E000410C0008410C000800000000410C000811
:1000F000410C0008410C0008410C0008410C0008AC
:10010000410C0008410C0008410C0008410C00089B
:10011000410C0008410C0008410C0008410C00088B
:10012000410C0008410C0008410C0008410C00087B
:1001300010B5054C237833B9044B13B10448AFF321
:1001400000800123237010BD20000020000000006B
:100150008C0C000808B5034B1BB103490348AFF3EF
:10016000008008BD00000000240000208C0C000866
:1001700080B582B000AF7B6801221A807B680422C0
:100180009A707B680122DA707968334800F08AFB44
:100190007B6802221A807B6804229A707B680122A5
:1001A000DA7079682C4800F07DFB7B6808221A80A1
:1001B0007B6804229A707B680122DA70796826488D
:1001C00000F070FB7B6810221A807B6804229A7012
:1001D0007B680122DA7079681F4800F063FB7B6856
:1001E00020221A807B6804229A707B680122DA70D0
:1001F0007968194800F056FB7B6840221A807B68BA
:1002000004229A707B680122DA707968124800F043
:1002100049FB7B6880221A807B6804229A707B6885
:100220000122DA7079680C4800F03CFB7B684FF4DF
:1002300080721A807B6804229A707B680122DA70CF
:100240007968054800F02EFBFF21034800F0E4FB2D
:1002500000BF0837BD4680BD000C014080B582B0AC
:1002600000AF00237B60B4E05E4B1B689BB20122B1
:1002700019465D4800F0B9FB5A4B5B689BB20122FE
:100280001946594800F0B1FB564B9B689BB20122BE
:100290001946554800F0A9FB524BDB689BB201227E
:1002A0001946514800F0A1FB4E4A7B6852F82330B2
:1002B0009BB2002219464C4800F097FB00233B609C
:1002C00080E04A4A3B6852F823309BB219464648C0
:1002D00000F074FB0346002B71D100BF434A3B681A
:1002E00052F823309BB219463F4800F067FB0346A3
:1002F000002BF3D07B68032B61D801A252F823F0C6
:10030000110300083903000861030008890300088D
:100310003B68002B01D1372360E03B68012B01D102
:1003200034235BE03B68022B01D1312356E03B686C
:10033000032B3DD13F2351E03B68002B01D13823F3
:100340004CE03B68012B01D1352347E03B68022B91
:1003500001D1322342E03B68032B2BD130233DE017
:100360003B68002B01D1392338E03B68012B01D1D8
:10037000362333E03B68022B01D133232EE03B6868
:10038000032B19D13D2329E03B68002B01D12F23FA
:1003900024E03B68012B01D12A231FE03B68022B9C
:1003A00001D12D231AE03B68032B07D12B2315E045
:1003B00000BF04E000BF02E000BF00E000BF3B68F8
:1003C00001333B603B68032B7FF77BAF7B680133D6
:1003D0007B607B68032B7FF747AF412318460837C4
:1003E000BD4680BD10000020000C01400000002030
:1003F00080B485B000AF78600023FB600BE0002381
:10040000BB6002E0BB680133BB60BB68FE2BF9D95F
:10041000FB680133FB60FA687B689A42EFD300BF48
:1004200000BF1437BD4680BC704780B582B000AFB6
:1004300003460A46FB711346BB71FB79002B08D1BA
:10044000BB790F2B05D8BB79803BDBB2184600F097
:10045000FBF8FB79012B08D1BB790F2B05D8BB79B1
:10046000403BDBB2184600F0EFF800BF0837BD464E
:1004700080BD80B500AF012000F0E6F800BF80BD70
:1004800080B500AF01224FF48061074800F0ADFA5B
:100490003220FFF7ADFF00224FF48061024800F0E8
:1004A000A4FA00BF80BD00BF0008014080B582B043
:1004B00000AF7B6801221A807B6804229A707B68F7
:1004C0000122DA707968314800F0ECF97B68022289
:1004D0001A807B6804229A707B680122DA7079683E
:1004E0002A4800F0DFF97B6804221A807B68042226
:1004F0009A707B680122DA707968244800F0D2F99A
:100500007B6808221A807B6804229A707B6801222B
:10051000DA7079681D4800F0C5F97B6810221A80EE
:100520007B6804229A707B680122DA707968174828
:1005300000F0B8F97B6820221A807B6804229A7048
:100540007B680122DA707968104800F0ABF97B68AB
:1005500040221A807B6804229A707B680122DA703C
:1005600079680A4800F09EF97B6880221A807B68CF
:1005700004229A707B680122DA707968034800F0DF
:1005800091F900BF0837BD4680BD00BF000801409B
:1005900080B582B000AF1420FFF72AFF7B684FF4CC
:1005A00000721A807B6804229A707B680122DA70DC
:1005B0007968244800F076F97B684FF480721A80DD
:1005C0007B6804229A707B680122DA7079681D4882
:1005D00000F068F97B684FF480621A807B6804221F
:1005E0009A707B680122DA707968164800F05AF92F
:1005F000FFF75CFF00224FF48071124800F0F5F91C
:1006000000224FF400710F4800F0EFF900224FF480
:1006100080610C4800F0E9F90F20FFF7E9FEFFF7D1
:1006200028FF382000F010F8062000F00DF8802098
:1006300000F00AF80F2000F007F800BF0837BD46A9
:1006400080BD00BF0008014080B582B000AF034606
:10065000FB71FB799BB219460B4800F0DDF90022D3
:100660004FF40071084800F0C0F900224FF4807187
:10067000054800F0BAF90120FFF7BAFEFFF700FFC6
:1006800000BF0837BD4680BD0008014080B582B07C
:1006900000AF0346FB71FFF709FFFB799BB21946D8
:1006A0000B4800F0B9F900224FF40071084800F03F
:1006B0009CF901224FF48071054800F096F9012061
:1006C000FFF796FEFFF7DCFE00BF0837BD4680BD92
:1006D0000008014080B584B000AF78600023FB6063
:1006E0001EE0FB680133FB607B685A1C7A601B7854
:1006F0001846FFF7CBFFFB68102B03D10021012028
:10070000FFF793FEFB68202B02D0FB68212B07D15B
:10071000FFF7AFFE00210020FFF787FE0023FB60FC
:100720007B681B78002BDCD100BF00BF1037BD46B3
:1007300080BD000080B483B000AF0346FB80FB881F
:10074000B3F5004F00F0A580B3F5004F00F3A38090
:10075000B3F5804F00F09B80B3F5804F00F39B8092
:10076000B3F5005F00F09180B3F5005F00F3938074
:10077000B3F5805F00F08780B3F5805F00F38B8076
:10078000B3F5006F7DD0B3F5006F00F38480B3F54F
:10079000806F74D0B3F5806F7DDCB3F5007F6CD0D3
:1007A000B3F5007F77DCB3F5807F64D0B3F5807F4D
:1007B00071DC802B5DD0802B6DDC202B48DC002B86
:1007C00069DD013B1F2B66D801A252F823F000BF60
:1007D000570800085B080008970800085F08000831
:1007E00097080008970800089708000863080008A1
:1007F000970800089708000897080008970800085D
:10080000970800089708000897080008670800087C
:10081000970800089708000897080008970800083C
:10082000970800089708000897080008970800082C
:10083000970800089708000897080008970800081C
:100840009708000897080008970800086B08000838
:10085000402B0CD01FE000231EE004231CE00823E3
:100860001AE00C2318E0102316E0142314E01823D8
:1008700012E01C2310E000230EE004230CE0082308
:100880000AE00C2308E0102306E0142304E01823F8
:1008900002E01C2300E0002318460C37BD4680BC54
:1008A000704700BF90B585B000AF78603960002315
:1008B000FB730023BB603B681B889BB2FF2B01D8F6
:1008C0007B6801E07B680433BB603B681B889BB29C
:1008D0001846FFF72FFF03461A460F239340DA43CB
:1008E000BB681B681A40BB681A603B689B78DBB228
:1008F000042B0ED03B689B78DBB2052B09D03B68FC
:100900009B78DBB2062B04D03B689B78DBB2072BCD
:1009100010D13B689B78DBB2043B9B005AB23B682A
:10092000DB78DBB25BB203F00F035BB213435BB265
:10093000FB7330E03B689B78DBB2002B04D03B6854
:100940009B78DBB2012B05D13B689B78DBB29B0027
:10095000FB7320E03B689B78DBB2082B02D10423B9
:10096000FB7318E00823FB733B689B78DBB2022B18
:1009700008D13B681B889AB27B68DB681A437B68A6
:10098000DA6008E03B681B889BB2DA437B68DB686F
:100990001A407B68DA60FC7B3B681B889BB2184678
:1009A000FFF7C8FE034604FA03F2BB681B681A434C
:1009B000BB681A6000BF1437BD4690BD80B485B0D7
:1009C00000AF78600B467B807B689A687B88134019
:1009D000002B02D00123FB7301E00023FB73FB7BA0
:1009E00018461437BD4680BC704780B483B000AF52
:1009F00078600B467B8013467B707B78002B03D09E
:100A00007A887B681A6102E07A887B685A6100BF45
:100A10000C37BD4680BC704780B483B000AF7860AF
:100A20000B467B807A887B68DA6000BF0C37BD4656
:100A300080BC704780B400AF074B9B69064A43F007
:100A400004039361044B9B69034A43F008039361D9
:100A500000BFBD4680BC70470010024080B582B028
:100A600000AF4FF40073BB800423BB710123FB7103
:100A70003B1D19462748FFF715FF4FF48063BB80E5
:100A80000423BB710123FB713B1D19462148FFF76D
:100A900009FF4FF40063BB800423BB710123FB718A
:100AA0003B1D19461B48FFF7FDFE4FF48053BB80EA
:100AB0000423BB710123FB713B1D19461548FFF749
:100AC000F1FE4FF40053BB800423BB710123FB7183
:100AD0003B1D19460F48FFF7E5FE4FF48043BB80EE
:100AE0000423BB710123FB713B1D19460948FFF725
:100AF000D9FE4FF40043BB800423BB710123FB717B
:100B00003B1D19460348FFF7CDFE00BF0837BD4621
:100B100080BD00BF000C014080B588B000AFFFF77A
:100B200089FFFFF79BFFFFF733FD2C48FFF7D2FD4E
:100B30001E20FFF75DFCFFF79CFC294A07F110031C
:100B400007CA03C31A800233120C1A70254A3B1DD0
:100B500007CA03C31A800233120C1A700023FB77F2
:100B600019E0FB7F20333B4413F8103C1846FFF795
:100B70008DFDFB7F20333B4413F81C3C9BB25B0292
:100B80009BB219461848FFF747FF6420FFF730FC77
:100B9000FB7F0133FB77FB7F0A2BE2D9FFF769FC70
:100BA000FFF7E6FA1148FFF795FD1E20FFF720FC3E
:100BB000FFF75FFCFFF752FB0346BB77BB7F3F2B82
:100BC00002D07E2B03D107E0FFF753FC04E0BB7F8C
:100BD0001846FFF75BFD00BFECE700BFA40C000860
:100BE000B80C0008C40C0008000C0140A80C000858
:100BF0000D488546AFF300800C480D490D4A00238F
:100C000002E0D458C4500433C4188C42F9D30A4AC1
:100C10000A4C002301E013600432A242FBD300F02F
:100C200011F8FFF779FFFEE7002800200000002000
:100C300020000020D80C0008200000203C000020EC
:100C4000FEE7000070B500260C4D0D4C641BA4108F
:100C5000A64209D100F01AF800260A4D0A4C641B7E
:100C6000A410A64205D170BD55F8043B9847013643
:100C7000EEE755F8043B98470136F2E7D00C000840
:100C8000D00C0008D00C0008D40C0008F8B500BF48
:100C9000F8BC08BC9E467047F8B500BFF8BC08BC5D
:040CA0009E467047B5
:100CA400484559004B657970616420697320726509
:100CB40061647900303132333435363738393000B5
:0C0CC400017924304C12021900100100CC
:040CD00055010008C2
:040CD40031010008E2
:100CD80001000000020000000800000010000000F1
:100CE800200000004000000080000000000100001B
:0400000508000BF1F3
:00000001FF
