:020000040800F2
:1000000000280020E5090008350A0008350A000824
:10001000350A0008350A0008350A0008000000000B
:10002000000000000000000000000000350A000889
:10003000350A000800000000350A0008350A0008EB
:10004000350A0008350A0008350A0008350A000894
:10005000350A0008350A00087101000895010008FA
:10006000B9010008DD01000801020008350A000896
:10007000350A0008350A0008350A0008350A000864
:10008000350A0008350A0008350A0008350A000854
:10009000350A0008350A0008350A0008250200085C
:1000A000350A0008350A0008350A0008350A000834
:1000B000350A0008350A0008350A0008350A000824
:1000C000350A0008350A0008350A0008350A000814
:1000D000350A0008090900081D090008310900084F
:1000E000CD020008350A000800000000350A0008AB
:1000F000350A0008350A0008350A0008350A0008E4
:10010000350A0008350A0008350A0008350A0008D3
:10011000350A0008350A0008350A0008350A0008C3
:10012000350A0008350A0008350A0008350A0008B3
:1001300010B5054C237833B9044B13B10448AFF321
:1001400000800123237010BD00000020000000008B
:10015000800A000808B5034B1BB103490348AFF3FD
:10016000008008BD0000000004000020800A000894
:1001700080B500AF054B5B69044A43F0010353614E
:10018000034B1B68984700BF80BD00BF00040140BF
:100190001C00002080B500AF054B5B69044A43F0AA
:1001A00002035361034B5B68984700BF80BD00BFEB
:1001B000000401401C00002080B500AF054B5B69C6
:1001C000044A43F004035361034B9B68984700BF04
:1001D00080BD00BF000401401C00002080B500AFBE
:1001E000054B5B69044A43F008035361034BDB682A
:1001F000984700BF80BD00BF000401401C000020E4
:1002000080B500AF054B5B69044A43F010035361AE
:10021000034B1B69984700BF80BD00BF000401402D
:100220001C00002080B500AF264B5B6903F0200363
:10023000002B08D0234B5B69224A43F02003536113
:10024000214B5B6998471F4B5B6903F04003002B10
:1002500008D01C4B5B691B4A43F0400353611A4BA7
:100260009B699847174B5B6903F08003002B08D00C
:10027000144B5B69134A43F080035361124BDB69F3
:100280009847104B5B6903F48073002B08D00D4B2B
:100290005B690C4A43F4807353610B4B1B6A9847AC
:1002A000084B5B6903F40073002B08D0054B5B69B6
:1002B000044A43F400735361034B5B6A984700BFE1
:1002C00080BD00BF000401401C00002080B400AFCE
:1002D000044B5B69034A43F00103536100BFBD4611
:1002E00080BC70470004014080B483B000AF034677
:1002F000FB80FB88B3F5004F00F0A580B3F5004FFD
:1003000000F3A380B3F5804F00F09B80B3F5804FDE
:1003100000F39B80B3F5005F00F09180B3F5005FC0
:1003200000F39380B3F5805F00F08780B3F5805FC2
:1003300000F38B80B3F5006F7DD0B3F5006F00F351
:100340008480B3F5806F74D0B3F5806F7DDCB3F536
:10035000007F6CD0B3F5007F77DCB3F5807F64D08D
:10036000B3F5807F71DC802B5DD0802B6DDC202B82
:1003700048DC002B69DD013B1F2B66D801A252F837
:1003800023F000BF0B0400080F0400084B04000812
:10039000130400084B0400084B0400084B04000839
:1003A000170400084B0400084B0400084B04000825
:1003B0004B0400084B0400084B0400084B040008E1
:1003C0001B0400084B0400084B0400084B04000801
:1003D0004B0400084B0400084B0400084B040008C1
:1003E0004B0400084B0400084B0400084B040008B1
:1003F0004B0400084B0400084B0400084B040008A1
:100400001F040008402B0CD01FE000231EE0042333
:100410001CE008231AE00C2318E0102316E0142334
:1004200014E0182312E01C2310E000230EE0042344
:100430000CE008230AE00C2308E0102306E0142354
:1004400004E0182302E01C2300E0002318460C37C8
:10045000BD4680BC704700BF90B585B000AF7860E6
:1004600039600023FB730023BB603B681B889BB291
:10047000FF2B01D87B6801E07B680433BB603B68DD
:100480001B889BB21846FFF72FFF03461A460F231F
:100490009340DA43BB681B681A40BB681A603B682C
:1004A0009B78DBB2042B0ED03B689B78DBB2052B2C
:1004B00009D03B689B78DBB2062B04D03B689B7865
:1004C000DBB2072B10D13B689B78DBB2043B9B006F
:1004D0005AB23B68DB78DBB25BB203F00F035BB26E
:1004E00013435BB2FB7330E03B689B78DBB2002BBD
:1004F00004D03B689B78DBB2012B05D13B689B782D
:10050000DBB29B00FB7320E03B689B78DBB2082BDF
:1005100002D10423FB7318E00823FB733B689B782C
:10052000DBB2022B08D13B681B889AB27B68DB6880
:100530001A437B68DA6008E03B681B889BB2DA43A9
:100540007B68DB681A407B68DA60FC7B3B681B8851
:100550009BB21846FFF7C8FE034604FA03F2BB68D5
:100560001B681A43BB681A6000BF1437BD4690BDB4
:1005700080B400AF0B4B5B689B0803F00303022BB6
:100580000AD0022B0AD8002B02D0012B02D005E0A2
:10059000054B03E0054B01E0044BFFE71846BD4661
:1005A00080BC70470010024000127A000024F40062
:1005B00080B500AFFFF7DCFF0246054B5B681B0A06
:1005C00003F007030349CB5C22FA03F3184680BD0E
:1005D00000100240A00A000880B500AFFFF7E8FF56
:1005E0000246054B5B681B0A03F007030349CB5C1B
:1005F00022FA03F3184680BD00100240980A000852
:1006000080B500AFFFF7D4FF0246054B5B68DB0AFD
:1006100003F007030349CB5C22FA03F3184680BDBD
:1006200000100240980A000880B584B000AF7860DE
:100630003960564A3B6813607B68554A934206D13D
:10064000544B9B69534A43F48043936114E07B68A5
:10065000514A934206D14F4BDB694E4A43F4003373
:10066000D36109E07B684D4A934205D1494BDB6970
:10067000484A43F48023D3617B68DB6843F400522B
:100680007B68DA607B68DB683A6812781A437B68BB
:10069000DA607B68DB683A68127A1A437B68DA6052
:1006A0007B68DB683A68527A1A437B68DA607B6859
:1006B0001B693A68927A1A437B681A617B685B69A6
:1006C0003A68D27A1A437B685A617B68304A93420F
:1006D00003D1FFF795FFF86002E0FFF77DFFF860B8
:1006E0003B685B681B01FA68B2FBF3F31901FA6817
:1006F00013469B0013449A001A443B685B689B00B6
:10070000B2FBF3F23B685B681B01F868B0FBF3F3E4
:10071000642000FB03F3D31A1B01214AA2FB03232D
:100720005B0903F00F0341EA03027B689A603B68B0
:100730001B7B002B26D07B68DB683A68127B1A4350
:100740007B68DA607B68124A934206D1154B1B68BE
:10075000144A43F02003136014E07B680E4A93426E
:1007600006D1104B1B680F4A43F04003136009E0A9
:100770007B680A4A934205D10A4B1B68094A43F039
:100780008003136000BF1037BD4680BD58000020B5
:100790000038014000100240004400400048004082
:1007A0001F85EB5104E100E080B584B000AF7860B4
:1007B0007B682B4A934218D14FF40073BB81062308
:1007C000BB730123FB7307F10C0319462548FFF7A0
:1007D00043FE4FF48063BB810823BB7307F10C0316
:1007E00019462048FFF738FE36E07B681E4A9342E0
:1007F00016D10423BB810623BB730123FB7307F1CE
:100800000C0319461748FFF727FE0823BB8108236E
:10081000BB7307F10C0319461248FFF71DFE1BE0DE
:100820007B68124A934217D14FF48063BB81062341
:10083000BB730123FB7307F10C0319460C48FFF748
:100840000BFE4FF40063BB810823BB7307F10C035D
:1008500019460748FFF700FE00BF1037BD4680BDB0
:1008600000380140000801400044004000480040BA
:10087000000C014080B485B000AFF860B960134649
:10088000FB71FB79002B06D100BFFB681B6803F0EE
:100890008003002BF9D0BB681B88DAB2FB685A6072
:1008A00000BF1437BD4680BC7047000080B485B0DF
:1008B00000AFF860B9601346FB71FB79002B06D1DD
:1008C00000BFFB681B6803F02003002BF9D00D4B21
:1008D0001B685B7A002B07D1FB685B689BB2DBB2BD
:1008E0009AB2BB681A8007E0FB685B689BB203F0B2
:1008F0007F039AB2BB681A8000BF1437BD4680BC24
:10090000704700BF5800002080B500AF024B1B6845
:100910001B69984700BF80BD5800002080B500AF1C
:10092000024B1B681B69984700BF80BD5800002020
:1009300080B500AF024B1B681B69984700BF80BDA4
:100940005800002080B500AF012205490548FFF797
:10095000ADFF002202490348FFF78CFF00BF80BDB6
:100960005C0000200038014080B586B000AF00F088
:100970001FF84FF4E133BB600023FB7320233B746B
:10098000094B7B6100237B7300233B730023BB7304
:100990000C233B713B1D19460448FFF745FE0348F5
:1009A000FFF702FFFEE700BF4509000800380140DD
:1009B00080B400AF0A4B9B69094A43F0040393617A
:1009C000074B9B69064A43F008039361044B9B69FC
:1009D000034A43F00103936100BFBD4680BC7047EA
:1009E000001002400D488546AFF300800C480D49C9
:1009F0000D4A002302E0D458C4500433C4188C427A
:100A0000F9D30A4A0A4C002301E013600432A242DF
:100A1000FBD300F011F8FFF7A7FFFEE70028002046
:100A20000000002000000020B80A0008000000209C
:100A300060000020FEE7000070B500260C4D0D4C54
:100A4000641BA410A64209D100F01AF800260A4D32
:100A50000A4C641BA410A64205D170BD55F8043B96
:100A600098470136EEE755F8043B98470136F2E720
:100A7000B00A0008B00A0008B00A0008B40A00086A
:100A8000F8B500BFF8BC08BC9E467047F8B500BF7B
:080A9000F8BC08BC9E4670474B
:100A98000000000001020304000000000000000044
:080AA80001020304060708091E
:040AB00055010008E4
:040AB4003101000804
:04000005080009E501
:00000001FF
