:100000000C942A000C9434000C9434000C943400AA
:100010000C9434000C9434000C9434000C94340090
:100020000C9434000C9434000C9434000C94340080
:100030000C9434000C9434000C9434000C94340070
:100040000C9434000C9434000C9434000C94340060
:100050000C94340011241FBECFE5D8E0DEBFCDBF25
:100060000E943C000C9464000C9400008FEF81BB54
:1000700084B38F7E84BB08950E94360030E020E078
:1000800003C031E001C030E09C99FECF9C9BFECFC5
:1000900042B381E090E0022E02C0880F991F0A94BB
:1000A000E2F7842782BB273021F4313051F7215009
:1000B000EBCF313021F4222311F02150E5CF313044
:0C00C00011F32F5F30E0E0CFF894FFCF89
:00000001FF
