S01C000053544D3332463130335F4932435F4452495645522E737265638D
S315080000000028002051110008A1110008A1110008BC
S31508000010A1110008A1110008A111000800000000A4
S31508000020000000000000000000000000A111000808
S31508000030A111000800000000A1110008A111000884
S31508000040A1110008A1110008A1110008A1110008BA
S31508000050A1110008A1110008D5020008F90200083C
S315080000601D0300084103000865030008A1110008E4
S31508000070A1110008A1110008A1110008A11100088A
S31508000080A1110008A1110008A1110008A11100087A
S31508000090A1110008A1110008A11100088903000890
S315080000A0A1110008A1110008A1110008A11100085A
S315080000B0A1110008A1110008A1110008310E0008BD
S315080000C0150F0008210F00082D0F0008C90F00089A
S315080000D021100008791000088D100008A1100008EA
S315080000E031040008A111000800000000A111000851
S315080000F0A1110008A1110008A1110008A11100080A
S31508000100A1110008A1110008A1110008A1110008F9
S31508000110A1110008A1110008A1110008A1110008E9
S31508000120A1110008A1110008A1110008A1110008D9
S3150800013010B5054C237833B9044B13B10448AFF313
S3150800014000800123237010BD00000020000000007D
S31508000150EC11000808B5034B1BB103490348AFF37C
S31508000160008008BD0000000004000020EC11000813
S3150800017080B58AB000AF40233B624FF48063FB61D1
S31508000180094B7B600023FB6000237B620023BB6076
S31508000190064800F039FD3B1D1946044800F020FCCE
S315080001A000BF2837BD4680BDA08601000054004028
S315080001B080B5C8B002AF07F58C73A3F586731860CF
S315080001C007F58C73A3F58873196007F58C73A3F28A
S315080001D011131A7007F58C73A3F586731B681B0A2F
S315080001E0DAB207F58C73A3F582731A7007F58C7368
S315080001F0A3F586731B68DAB207F58C73A3F58273C9
S315080002005A70022387F8173115E097F81731023B21
S3150800021007F58C72A2F5887212681A4497F8173196
S31508000220117807F58C72A2F58272D15497F81731B6
S31508000230013387F8173107F58C73A3F211131B786E
S315080002405A1C97F817319A42DFDA07F58C73A3F22E
S3150800025011131B780233194607F114020023019380
S31508000260002300930B462A21044800F00BFD0023C7
S31508000270184607F58C77BD4680BD00BF0054004080
S3150800028080B588B002AFF860B9601346FB71FB68A9
S315080002901B0ADBB23B75FB68DBB27B7507F1140200
S315080002A0002301930123009302232A21084800F022
S315080002B0E9FCFB790122019200220092BA682A2100
S315080002C0034800F03DFD002318461837BD4680BD9B
S315080002D00054004080B500AF054B5B69044A43F003
S315080002E001035361034B1B68984700BF80BD00BFDD
S315080002F0000401401C00002080B500AF054B5B6977
S31508000300044A43F002035361034B5B68984700BFF6
S3150800031080BD00BF000401401C00002080B500AF6E
S31508000320054B5B69044A43F004035361034B9B681E
S31508000330984700BF80BD00BF000401401C00002094
S3150800034080B500AF054B5B69044A43F00803536167
S31508000350034BDB68984700BF80BD00BF000401401F
S315080003601C00002080B500AF054B5B69044A43F0CA
S3150800037010035361034B1B69984700BF80BD00BF3C
S31508000380000401401C00002080B500AF264B5B69C5
S3150800039003F02003002B08D0234B5B69224A43F065
S315080003A020035361214B5B6998471F4B5B6903F038
S315080003B04003002B08D01C4B5B691B4A43F04003E3
S315080003C053611A4B9B699847174B5B6903F0800387
S315080003D0002B08D0144B5B69134A43F08003536122
S315080003E0124BDB699847104B5B6903F48073002B4B
S315080003F008D00D4B5B690C4A43F4807353610B4B71
S315080004001B6A9847084B5B6903F40073002B08D0F6
S31508000410054B5B69044A43F400735361034B5B6AFB
S31508000420984700BF80BD00BF000401401C000020A3
S3150800043080B400AF044B5B69034A43F00103536180
S3150800044000BFBD4680BC70470004014080B483B03D
S3150800045000AF0346FB80FB88B3F5004F00F0A5808C
S31508000460B3F5004F00F3A380B3F5804F00F09B80EF
S31508000470B3F5804F00F39B80B3F5005F00F09180E1
S31508000480B3F5005F00F39380B3F5805F00F08780D3
S31508000490B3F5805F00F38B80B3F5006F7DD0B3F5BD
S315080004A0006F00F38480B3F5806F74D0B3F5806F66
S315080004B07DDCB3F5007F6CD0B3F5007F77DCB3F550
S315080004C0807F64D0B3F5807F71DC802B5DD0802B74
S315080004D06DDC202B48DC002B69DD013B1F2B66D821
S315080004E001A252F823F000BF6F0500087305000843
S315080004F0AF05000877050008AF050008AF05000836
S31508000500AF0500087B050008AF050008AF05000821
S31508000510AF050008AF050008AF050008AF050008DD
S31508000520AF0500087F050008AF050008AF050008FD
S31508000530AF050008AF050008AF050008AF050008BD
S31508000540AF050008AF050008AF050008AF050008AD
S31508000550AF050008AF050008AF050008AF0500089D
S31508000560AF05000883050008402B0CD01FE00023C8
S315080005701EE004231CE008231AE00C2318E01023CD
S3150800058016E0142314E0182312E01C2310E00023BD
S315080005900EE004230CE008230AE00C2308E01023ED
S315080005A006E0142304E0182302E01C2300E00023DD
S315080005B018460C37BD4680BC704700BF90B585B05D
S315080005C000AF786039600023FB730023BB603B688B
S315080005D01B889BB2FF2B01D87B6801E07B6804333C
S315080005E0BB603B681B889BB21846FFF72FFF034684
S315080005F01A460F239340DA43BB681B681A40BB6848
S315080006001A603B689B78DBB2042B0ED03B689B785C
S31508000610DBB2052B09D03B689B78DBB2062B04D0EE
S315080006203B689B78DBB2072B10D13B689B78DBB223
S31508000630043B9B005AB23B68DB78DBB25BB203F043
S315080006400F035BB213435BB2FB7330E03B689B78E6
S31508000650DBB2002B04D03B689B78DBB2012B05D1BB
S315080006603B689B78DBB29B00FB7320E03B689B787A
S31508000670DBB2082B02D10423FB7318E00823FB73B3
S315080006803B689B78DBB2022B08D13B681B889AB281
S315080006907B68DB681A437B68DA6008E03B681B887E
S315080006A09BB2DA437B68DB681A407B68DA60FC7BBE
S315080006B03B681B889BB21846FFF7C8FE034604FA38
S315080006C003F2BB681B681A43BB681A6000BF14377D
S315080006D0BD4690BD80B489B000AF7860396000230C
S315080006E0BB6100237B6100233B610023FB773B68EA
S315080006F0062B13D83B68062B7ED801A252F823F0A6
S31508000700270700083F07000857070008E107000801
S31508000710A5070008A5070008BD0700083B68394A71
S31508000720934224D068E07B689B6903F00203002BA0
S3150800073002D00123FB775FE00023FB775CE07B6850
S315080007405B6903F00103002B02D00123FB7753E01A
S315080007500023FB7750E07B685B6903F00203002BFC
S3150800076002D00123FB7747E00023FB7744E07B6850
S315080007705B69BB617B689B697B617B691B047B61E9
S315080007807A69BB69134323F07F433B613A691D4B82
S3150800079013401C4A934202D10123FB772CE0002325
S315080007A0FB7729E07B685B6903F08003002B02D0A6
S315080007B00123FB7720E00023FB771DE07B685B695C
S315080007C003F08003002B08D07B685B6903F0040301
S315080007D0002B02D00123FB770EE00023FB770BE00A
S315080007E07B685B6903F04003002B02D00123FB778B
S315080007F001E00023FB7700BFFB7F18462437BD4680
S3150800080080BC70478000070080B483B000AF786072
S315080008100B46FB70FB78012B06D17B681B6843F4FB
S3150800082080627B681A6005E07B681B6823F4806237
S315080008307B681A6000BF0C37BD4680BC704780B520
S3150800084082B000AF78600B46FB701346BB70BB786E
S31508000850012B07D000BF00217868FFF73BFF03464E
S31508000860002BF8D1FB78012B06D17B681B6843F473
S3150800087080727B681A6005E07B681B6823F48072C7
S315080008807B681A6000BF0837BD4680BD80B483B058
S3150800089000AF78600B46FB70FB78012B06D17B68AE
S315080008A01B6843F400727B681A6005E07B681B6866
S315080008B023F400727B681A6000BF0C37BD4680BC03
S315080008C0704780B483B000AF78600B467B801346D0
S315080008D07B707B885B007B807B78002B04D17B88D0
S315080008E023F001037B8003E07B8843F001037B80D0
S315080008F07A887B681A6100BF0C37BD4680BC704792
S3150800090080B584B000AF78600B46FB707B68324ACE
S31508000910934214BF01230023DBB2FB73FB78042B3D
S3150800092056D801A252F823F0430900083D090008E9
S31508000930670900087F090008A30900087B689B6906
S3150800094046E07B689B6903F00403002B3BD0FA7BE7
S3150800095022491346DB0013449B000B4420331B68D3
S31508000960002098472FE0FA7B1C491346DB00134406
S315080009709B000B4420331B680220984728E07B68BD
S315080009809B6903F00403002B1FD0FA7B1349134617
S31508000990DB0013449B000B4420331B680320984755
S315080009A013E07B689B6903F00403002B0FD1FA7BE5
S315080009B00A491346DB0013449B000B4420331B688B
S315080009C00420984703E000BF02E000BF00E000BF34
S315080009D000BF1037BD4680BD0054004058000020B7
S315080009E0B0B586B000AF786039600023FB8200237B
S315080009F0BB8200237B827B4BFB607B687A4A9342EF
S31508000A0010D17A4A3B6814461D460FCD0FC40FCD48
S31508000A100FC42B682360764BDB69754A43F40013D1
S31508000A20D36114E07B68734A934210D16F4B3A68DE
S31508000A3003F1240415460FCD0FC40FCD0FC42B6840
S31508000A4023606B4BDB696A4A43F48003D3613B68D6
S31508000A509B68002B7FD17B685B68FB82FB8A23F04F
S31508000A603F03FB8200F09CFAF860FB68624AA2FB2F
S31508000A7003239B0CBB82FA8ABB8A1343FB82FA8A3E
S31508000A807B685A607B681B6823F001027B681A60E2
S31508000A900023FB823B681B684CF25032934204D019
S31508000AA03B681B68554A934212D13B681B685B003A
S31508000AB0FA68B2FBF3F37B82FA8A7B8A1343FB82DA
S31508000AC0FA8A7B68DA61BB8A01331A467B681A623E
S31508000AD07B681B68FB823B689B699AB23B685B68CC
S31508000AE09BB213439AB23B68DB699BB213439AB233
S31508000AF03B689B689BB213439AB2FB8A1343FB82FB
S31508000B00FA8A7B681A600023FB823B689B89012B63
S31508000B100DD10123FB823B681B8A5B001AB2B7F929
S31508000B20163013431BB2FB82FA8A7B68DA6000230D
S31508000B30FB823B68DB895B001AB2B7F916301343B0
S31508000B401BB2FB823B685B699AB2FB8A1343FB8242
S31508000B50FA8A7B689A603B681B6A002B38D07B68E8
S31508000B605B6843F480627B685A607B685B6843F421
S31508000B7080727B685A607B685B6843F400727B68A6
S31508000B805A607B68184A93420CD11D4B1B681C4A55
S31508000B9043F0004313601B4B1B681A4A43F00103DA
S31508000BA013600FE07B68134A93420BD1154B1B6801
S31508000BB0144A43F002031360124B1B68114A43F0B0
S31508000BC0020313607B6800225A617B6800229A61DF
S31508000BD07B681B6843F001027B681A6000BF183700
S31508000BE0BD46B0BD00127A000054004058000020EF
S31508000BF0001002400058004083DE1B43A086010017
S31508000C0000E100E004E100E080B584B000AF786060
S31508000C100723BB730123FB737B68174A934210D1E2
S31508000C204023BB8107F10C0319461448FFF7C6FC9D
S31508000C308023BB8107F10C0319461048FFF7BEFC59
S31508000C4015E07B680E4A934211D14FF48063BB814D
S31508000C5007F10C0319460948FFF7B0FC4FF4006387
S31508000C60BB8107F10C0319460448FFF7A7FC00BF30
S31508000C701037BD4680BD00BF00540040000C01403F
S31508000C800058004080B586B000AFF8607A603B60D7
S31508000C900B467B8100237B6197F824301A46012195
S31508000CA0F868FFF7CCFD00BF0121F868FFF712FDD1
S31508000CB00346002BF8D07B8900221946F868FFF70F
S31508000CC000FE00BF0221F868FFF704FD0346002B6B
S31508000CD0F8D000BF1949F868FFF7FCFC0346002B5B
S31508000CE0F8D000237B6111E07B697A6813441B788E
S31508000CF01A46FB681A6100BF0421F868FFF7EAFC88
S31508000D000346002BF8D07B6901337B617B693A681F
S31508000D109A42E9D800BF0621F868FFF7DBFC0346CC
S31508000D20002BF8D097F82030002B03D10121F86862
S31508000D30FFF7ACFD00BF1837BD4680BD8000070031
S31508000D4080B586B000AFF8607A603B600B467B8161
S31508000D5000237B61FB68344A934214BF01230023B6
S31508000D60DBB2FB7497F824301A460121F868FFF7BE
S31508000D7066FD00BF0121F868FFF7ACFC0346002BAF
S31508000D80F8D07B8901221946F868FFF79AFD00BF5B
S31508000D900221F868FFF79EFC0346002BF8D00121D4
S31508000DA0F868FFF731FD3B68002B1CD03B687B6178
S31508000DB012E000BF0321F868FFF78CFC0346002BFE
S31508000DC0F8D0FB681B69DAB27B681A707B68013356
S31508000DD07B607B69013B7B617B69012BE9DC002138
S31508000DE0F868FFF711FD97F82030002B03D1012191
S31508000DF0F868FFF74BFDFA7C0C491346DB001344F1
S31508000E009B000B4418331B68B3F5806F04D101218E
S31508000E10F868FFF7F9FC03E00021F868FFF7F4FC2F
S31508000E2000BF1837BD4680BD00540040580000205A
S31508000E3080B586B000AF00237B60354B7B617B694C
S31508000E405B6803F400733B617B695B6803F480634A
S31508000E50FB607B695B6903F01003BB603B69002B91
S31508000E600CD0BB68002B09D07B695B697B607B690A
S31508000E7000221A6000217869FFF742FD7B695B69E9
S31508000E8003F00203BB603B69002B12D0BB68002B42
S31508000E900FD07B699B6903F00103002B09D17B699D
S31508000EA05B697B607B699B697B6002217869FFF7D8
S31508000EB027FD7B695B6903F08003BB603B69002BF8
S31508000EC00CD0BB68002B09D07B699B6903F0010332
S31508000ED0002B03D103217869FFF712FD7B695B6953
S31508000EE003F04003BB603B69002B0CD0BB68002BAA
S31508000EF009D07B699B6903F00103002B03D1042108
S31508000F007869FFF7FDFC00BF1837BD4680BD00BFF6
S31508000F100054004080B400AF00BFBD4680BC704797
S31508000F2080B400AF00BFBD4680BC704780B400AF38
S31508000F3000BFBD4680BC704780B400AF0B4B5B68F2
S31508000F409B0803F00303022B0AD0022B0AD8002BB6
S31508000F5002D0012B02D005E0054B03E0054B01E06A
S31508000F60044BFFE71846BD4680BC70470010024098
S31508000F7000127A000024F40080B500AFFFF7DCFF0A
S31508000F800246054B5B681B0A03F007030349CB5C63
S31508000F9022FA03F3184680BD001002401412000816
S31508000FA080B500AFFFF7E8FF0246054B5B681B0AF2
S31508000FB003F007030349CB5C22FA03F3184680BD06
S31508000FC0001002400C12000880B582B000AF124B28
S31508000FD09B685B0803F00103DAB23B7962F300030E
S31508000FE03B710D4B9B6803F00103DAB23B7962F360
S31508000FF041033B71084B9B681B0903F00103DAB2F6
S315080010003B7962F382033B71044B5B6938799847F5
S3150800101000BF0837BD4680BD00300140A000002053
S3150800102080B582B000AF124B9B685B0803F00103E2
S31508001030DAB23B7962F300033B710D4B9B6803F010
S315080010400103DAB23B7962F341033B71084B9B68B3
S315080010501B0903F00103DAB23B7962F382033B71A1
S31508001060044BDB6A3879984700BF0837BD4680BD10
S3150800107000380040A000002080B500AF024B1B6876
S315080010801B69984700BF80BDD000002080B500AF1F
S31508001090024B1B681B69984700BF80BDD000002023
S315080010A080B500AF024B1B681B69984700BF80BD1F
S315080010B0D000002080B584B000AF234B9B69224A3C
S315080010C043F004039361204B9B691F4A43F00803CE
S315080010D093611E4A07F1080392E803001860043377
S315080010E0198002330A0C1A7000233B603B1D00214D
S315080010F00A461A800A469A70FFF73AF807F1080373
S3150800110007221946AF20FFF753F83B460722194630
S31508001110AF20FFF7B5F80A233B720B237B720C232B
S31508001120BB720D23FB7207F108030422194640F629
S31508001130FF70FFF73DF83B460422194640F6FF705C
S31508001140FFF79EF8FEE700BF0010024004120008F1
S315080011500D488546AFF300800C480D490D4A00231B
S3150800116002E0D458C4500433C4188C42F9D30A4A4E
S315080011700A4C002301E013600432A242FBD300F0BC
S3150800118011F8FFF797FFFEE700280020000000206F
S31508001190000000202C12000800000020D4000020C7
S315080011A0FEE7000070B500260C4D0D4C641BA4101C
S315080011B0A64209D100F01AF800260A4D0A4C641B0B
S315080011C0A410A64205D170BD55F8043B98470136D0
S315080011D0EEE755F8043B98470136F2E72412000873
S315080011E0241200082412000828120008F8B500BFC7
S315080011F0F8BC08BC9E467047F8B500BFF8BC08BCEA
S309080012009E46704741
S3150800120401020304050607000000000001020304A6
S315080012140000000000000000010203040607080994
S30908001224550100085A
S30908001228310100087A
S7050800115190
